:100000000C9443000C944D000C944D000C944D0046
:100010000C944D000C944D000C944D000C944D002C
:100020000C944D000C944D000C944D000C944D001C
:100030000C944D000C944D000C944D000C944D000C
:100040000C944D000C944D000C944D000C944D00FC
:100050000C944D000C944D000C944D000C944D00EC
:100060000C944D000C944D0005A84CCDB2D44EB963
:100070003836A9020C50B9918688083CA6AAAA2A4B
:10008000BE000000803F11241FBECFEFD8E0DEBFCE
:10009000CDBF0E9469000C94AE020C940000ECEB02
:1000A000F0E094E090838093BA0084EC808308951C
:1000B000ECEBF0E080818823ECF708958093BB009F
:1000C00084E88093BC00ECEBF0E080818823ECF7BF
:1000D000089580E10E944F00212C0F2EFCEBCF2EC3
:1000E000D12CF02D0F2EF4EC3F2EF02DCFE3D0E0ED
:1000F000F22C00E010E0E12C6F2D702F812F9E2D4F
:100100000E945D024B015C0120E030E044E352E4D8
:100110006F2D702F812F9E2D0E94F0010E942C01C7
:100120002B013C01F60130820E945800A30192018C
:10013000C501B4010E94F00120E030E048EC52E437
:100140000E94F00120E030E04EEF52E40E94C00037
:100150000E943101862F0E945E002DEC3CEC4CEC9D
:100160005DE36F2D702F812F9E2D0E94C000F62E13
:10017000072F182FE92E219709F0BECFB7CF50587F
:10018000BB27AA270E94D7000C94A2010E946901F4
:1001900038F00E94700120F039F49F3F19F426F4E2
:1001A0000C9466010EF4E095E7FB0C946001E92FD6
:1001B0000E94C70158F3BA176207730784079507AF
:1001C00020F079F4A6F50C94E9010EF4E0950B2EDD
:1001D000BA2FA02D0B01B90190010C01CA01A00199
:1001E0001124FF27591B99F0593F50F4503E68F1F4
:1001F0001A16F040A22F232F342F4427585FF3CF35
:10020000469537952795A795F0405395C9F77EF405
:100210001F16BA0B620B730B840BBAF09150A1F04E
:10022000FF0FBB1F661F771F881FC2F70EC0BA0FD4
:10023000621F731F841F48F4879577956795B7955C
:10024000F7959E3F08F0B0CF9395880F08F0992757
:10025000EE0F9795879508950E947901E3950C9488
:10026000B3010E94CF0188F09F5798F0B92F9927CA
:10027000B751B0F0E1F0660F771F881F991F1AF091
:10028000BA95C9F714C0B13091F00E94E901B1E00C
:1002900008950C94E901672F782F8827B85F39F00B
:1002A000B93FCCF3869577956795B395D9F73EF42A
:1002B00090958095709561957F4F8F4F9F4F0895D2
:1002C00097F99F6780E870E060E008959FEF80EC09
:1002D000089500240A9416161706180609060895AC
:1002E00000240A94121613061406050608950C94A9
:1002F00066010E94CF01D8F3E894E0E0BB279F5746
:10030000F0F02AED3FE049EC06C0EE0FBB0F661F90
:10031000771F881F28F0B23A62077307840728F016
:10032000B25A620B730B840BE3959A9572F780387F
:1003300030F49A95BB0F661F771F881FD2F790483D
:100340000C946702092E0394000C11F4882352F0D8
:10035000BB0F40F4BF2B11F460FF04C06F5F7F4FF1
:100360008F4F9F4F0895EF93E0FF07C0A2EA2AED59
:100370003FE049EC5FEB0E94D7000E94A2010F9082
:10038000039401FC9058E8E6F0E00C94730257FDEA
:100390009058440F551F59F05F3F71F04795880FF3
:1003A00097FB991F61F09F3F79F08795089512168A
:1003B00013061406551FF2CF4695F1DF08C0161636
:1003C00017061806991FF1CF8695710561050894E7
:1003D0000895E894BB2766277727CB0197F90895FE
:1003E0000E9403020C94A2010E94690138F00E944D
:1003F000700120F0952311F00C9460010C946601BB
:1004000011240C94EA010E94C70170F3959FC1F377
:10041000950F50E0551F629FF001729FBB27F00DB2
:10042000B11D639FAA27F00DB11DAA1F649F662707
:10043000B00DA11D661F829F2227B00DA11D621F56
:10044000739FB00DA11D621F839FA00D611D221F10
:10045000749F3327A00D611D231F849F600D211DF4
:10046000822F762F6A2F11249F5750409AF0F1F077
:1004700088234AF0EE0FFF1FBB1F661F771F881FE0
:1004800091505040A9F79E3F510580F00C946001B7
:100490000C94EA015F3FE4F3983ED4F38695779598
:1004A0006795B795F795E7959F5FC1F7FE2B880F86
:1004B000911D9695879597F908959F930E947901CC
:1004C0000F9007FCEE5F0C94B3019F3F31F0915009
:1004D00020F4879577956795B795880F911D969528
:1004E000879597F908959F938F937F936F93FF93C9
:1004F000EF939B01AC010E94F001EF91FF910E94EC
:1005000087022F913F914F915F910C94F001DF93FF
:10051000CF931F930F93FF92EF92DF927B018C0199
:10052000689406C0DA2EEF010E940302FE01E894EF
:10053000A5912591359145915591A6F3EF010E9422
:10054000D700FE019701A801DA9469F7DF90EF90D8
:10055000FF900F911F91CF91DF910895F894FFCFF5
:00000001FF
