:100000000C9434000C943E000C943E000C943E0082
:100010000C943E000C943E000C943E000C943E0068
:100020000C943E000C943E000C943E000C943E0058
:100030000C943E000C943E000C943E000C943E0048
:100040000C943E000C943E000C943E000C943E0038
:100050000C943E000C943E000C943E000C943E0028
:100060000C943E000C943E0011241FBECFEFD8E04C
:10007000DEBFCDBF0E9466000C9479000C94000096
:1000800083E08093B9008FEF8093B8000895809348
:10009000BB0084E88093BC00ECEBF0E08081882317
:1000A000ECF7089584EA8093BC00ECEBF0E08081EB
:1000B0008823ECF7089584E88093BC00ECEBF0E033
:1000C00080818823ECF78091BB0008958CEF8AB97A
:1000D0000E9440000CEB10E0C4E90E94520081E154
:1000E0000E9447000E945B00F801C0838C7F8BB99F
:0600F000F4CFF894FFCFED
:00000001FF
